:020000040800F2
:10000000C0100020B908000895050008A5080008E0
:10001000A5080008A5080008A508000800000000C1
:10002000000000000000000000000000A50900081A
:10003000A508000800000000410900088517000815
:10004000350B0008350B0008350B0008350B000890
:10005000350B0008350B0008350B0008350B000880
:10006000350B0008350B0008350B0008350B000870
:10007000350B0008350B0008350B0008350B000860
:10008000350B0008350B0008350B0008350B000850
:10009000350B0008350B0008350B0008350B000840
:1000A000350B0008350B0008350B0008350B000830
:1000B000350B0008350B0008350B0008350B000820
:1000C000350B0008350B0008350B0008350B000810
:1000D000350B0008350B0008350B0008350B000800
:1000E000350B0008350B0008350B0008350B0008F0
:1000F000350B0008350B0008350B0008350B0008E0
:10010000350B0008350B0008350B0008350B0008CF
:10011000350B0008350B0008350B0008350B0008BF
:10012000350B0008350B0008350B0008350B0008AF
:10013000350B0008350B0008350B0008350B00089F
:10014000350B0008350B0008350B0008350B00088F
:10015000350B0008350B0008350B0008350B00087F
:10016000350B0008350B0008350B0008350B00086F
:10017000350B0008350B0008350B0008350B00085F
:10018000350B0008350B0008350B0008350B00084F
:04019000350B000823
:1001940053B94AB9002908BF00281CBF4FF0FF31EA
:1001A4004FF0FF3000F00CB8ADF1080C6DE904CE4F
:1001B40000F008F8DDF804E0DDE9022304B070473C
:1001C400704700BF2DE9F04786468C460846089ED6
:1001D400154674461946002B40F0C2808542B2FA97
:1001E40082F245D94AB1C2F1200300FA02FC2EFA88
:1001F40003F3954043EA0C0C94404FEA154EA8B221
:10020400BCFBFEF8230C0EFB18CC08FB00F943EAF8
:100214000C43994528D9EB1808F1FF3704D29945C6
:1002240002D9A8F102072B44A3EB0903A4B2B3FB40
:10023400FEFC0EFB1C330CFB00F044EA0344A0421A
:1002440014D92C190CF1FF3304D2A04202D9ACF119
:1002540002032C44241A43EA07401EB1D44000236D
:1002640034607360BDE8F0874746DDE76346F1E735
:1002740092BB431B01214FEA154EAFB2B3FBFEFC08
:10028400200C0EFB1C330CFB07F840EA0343984593
:1002940062D9EB180CF1FF3004D2984502D9ACF1C5
:1002A40002002B44A3EB0803A4B2B3FBFEFC0EFB39
:1002B4001C330CFB07F744EA0344A7424ED92C191C
:1002C4000CF1FF3304D2A74202D9ACF102032C444F
:1002D400E41B43EA0040C0E7C2F1200320FA03F123
:1002E400954090402EFA03F303434FEA154EAFB204
:1002F400B1FBFEFC0EFB1C10190C0CFB07F841EAC9
:100304000041884504FA02F422D969180CF1FF303F
:1003140004D2884502D9ACF102002944A1EB0801BA
:100324009BB2B1FBFEFC0EFB1C110CFB07F743EA6E
:1003340001439F420ED9EB180CF1FF3104D29F42C6
:1003440002D9ACF102012B44DB1B41EA004192E7E4
:100354006046E3E76146F7E76046A3E76346B7E72D
:10036400834206D916B9002108467BE7C6E900E0B6
:10037400F9E7B3FA83F78FB9834201D3724508D8FA
:10038400BEEB020460EB030301209C461EB900216E
:1003940068E73846FAE7C6E9004CF8E7C7F1200CED
:1003A400BB4022FA0CF41C432EFA0CF120FA0CF395
:1003B400B84001434FEA14490EFA07F5B3FBF9F8C4
:1003C4001FFA84FE09FB18300B0C08FB0EFA43EAF3
:1003D40000439A4502FA07F240D9E31808F1FF30C6
:1003E40004D29A4502D9A8F102002344A3EB0A03DC
:1003F40089B2B3FBF9F809FB183308FB0EFE41EA96
:1004040003418E452CD9611808F1FF3304D28E457F
:1004140002D9A8F10203214443EA0040A0FB029858
:10042400A1EB0E014145CE46434602D306D14D45CC
:1004340004D2B9EB020E68EB04030138002EA6D0F7
:10044400B5EB0E0261EB030101FA0CFC22FA07F38F
:100454004CEA0303F940C6E9003198E74046C5E792
:100464004346D9E7F8B5174D284602F074FE044612
:1004740030B32A69A968136823F0200313600B685A
:100484004FF42022052128469847002818DB0E4FF8
:100494000E4EAB6820215B692846984700280FDB85
:1004A40084F0010414F0FF0414BF394631460848AF
:1004B40002F036F8002142F2107001F021FEE8E764
:1004C4000020F8BD38350008FA390008FD39000865
:1004D400013A0008014B1B68184700BF00000020C8
:1004E40030B585B004460D4610220021684602F05E
:1004F4007EFF02238DF802302A46044B01932146E5
:10050400684602F01FF805B030BD00BFD9040008EA
:10051400014B1860704700BF0000002080B50546FD
:100524000E461746984601F009FE034602F068FF9E
:10053400DFF81890044649F8003042463046394600
:10054400A84754F8090000F0CBF900BF08000000E8
:10055400034A536823F0020353600020704700BF2E
:10056400002004E0044B054A1A60054A536843F02E
:1005740001035360002070475400002000127A00E9
:10058400002004E0014B0360002070472438000879
:1005940008B5034B1B689847BDE8084000F026B82F
:1005A4000400002030BFFFF7FDBF00BF2DE9F0417C
:1005B4000B4EDFF8308006EB0807CC1B05463246AD
:1005C4000949204602F005FFA01942460021083CD3
:1005D40002F00DFF2C6707F10800BDE8F08100BFB1
:1005E40000000000040000001C380008044B996857
:1005F4005869884203D003494FF080520A6070471B
:10060400C402002004ED00E070B5264B15469A6A3A
:1006140012F0100F9A6A14BF1124102412F0080F5C
:100624009A6A18BF1224920706460AD5586B9A6A2A
:10063400140634D519B19A6A22F080029A621324FE
:1006440001E06FF01500174B9A6A12F0010F9A6AD5
:1006540018BF142412F0200F9A6A18BF1524D2066A
:1006640002D49B6A9B070AD50E4B5B68190506D515
:10067400314600F00BFA10B180F309880224094BCB
:100684009A6A920642BF5A6A22F400525A629A6ADD
:1006940042F0FF029A6200232B70204670BD6FF077
:1006A4001500CCE700ED00E0134B9A6A12F0007FCE
:1006B4009A6A14BF1E201D2012F0807F9A6A18BF08
:1006C4001F2012F4002F9A6A18BF212012F4802FE1
:1006D4009A6A18BF222012F4003F9A6A18BF232096
:1006E40012F4803F9A6A6FEA02426FEA12429A62F7
:1006F40018BF2420704700BF00ED00E010B5194B6F
:100704000246986A9C6A10F4805F14BF1720162072
:1007140014F4006F9C6A18BF1820A40509D5986BBF
:10072400986A000404D51AB19A6A22F400429A62C3
:1007340019200C4B9A6A12F4806F9A6A18BF1A2017
:10074400D2050CD49B6A13F4005F18BF1C20054A21
:10075400936A43F47F43936200230B7010BD1B2004
:10076400F5E700BF00ED00E0F0B5484B5B688BB0E7
:100774000446C3F30803002585F31188BFF36F8F84
:1007840002F07F40B0F17F4F11D102F00C00082835
:100794000DD010074CBF0C4601250022033B8DF8F9
:1007A4000720032B05D8DFE803F0246367602C4699
:1007B400F3E700239DF80720CAB902AE04F120072D
:1007C40020686168324603C20834BC421646F7D139
:1007D400099A002D54D0C2F3080121B96FEA5222BC
:1007E4006FEA4222099202A9184602F081F90BB07D
:1007F400F0BD264BDA6A9107DBD4DA6A002AD8DB2B
:10080400DA6A5200D5D55A69A16942F480725A61F4
:10081400BFF34F8FBFF36F8F5A6931F8021C22F474
:1008240080725A61BFF34F8FBFF36F8F4DF6027220
:1008340091420AD09A6AD2B24AB10DF1070201215B
:100844002046FFF7E1FE0346B4E72368B2E79A6A5D
:1008540012F47F4F05D00DF107010120FFF74EFF81
:10086400F1E79B6AB3F5803FA3D3FFF71DFFEAE7E7
:100874000DF107020021E3E70DF107010020EDE788
:1008840022F4FF7222F00102ACE700BF00ED00E0A9
:10089400024A536943F010035361704700ED00E0CE
:1008A400EFF30880EFF3098101B57246FFF75CFFAF
:1008B40001BD00BF102080F3118808484FF4046183
:1008C400401880F30988EFF314800221084380F371
:1008D4001488BFF36F8F00F099F800000003002024
:1008E400084B9B6883420BD1EFF3058343B1064B5E
:1008F4005A6842F080525A605A6A22F400425A629C
:1009040002F0BBBCC402002000ED00E0094A936879
:100914006FF00A019967084958674B6843F08053A0
:100924004B60002383F31188BFF36F8F9368986F34
:10093400704700BFC402002000ED00E015498A683A
:100944004FF030001044EFF3098C80E8F01F1020C2
:1009540080F31288BFF36F8F0F4F4FF000664A6920
:100964008A603E604FF07004141920680B4C2060BC
:10097400506F0023536780F3118804B5104600F0CC
:10098400F7F8BDE8044002F1300090E8F01F8CF362
:1009940009887047C402002004ED00E0B80100207B
:1009A4001EF0040F0CBFEFF30880EFF30980816998
:1009B40011F8021C0229FFD001B502F09BF801BD19
:1009C40040B2002807DB044A4109012300F01F005C
:1009D400834042F82130704700E100E040B2002833
:1009E400A8BF00F1604001F10101B8BF064B4FEA16
:1009F4000111ACBF00F5614000F00F00C9B2B4BFF3
:100A0400195480F80013704714ED00E00F4A08B53C
:100A14000F4B22F07F029A60BFF34F8FBFF36F8FAB
:100A2400D3F8882022F47002C3F88820EFF31483EB
:100A340023F0040383F31488BFF36F8F01F054F899
:100A440001F008FC00F068F801F0A0F800000008CC
:100A540000ED00E042F8203C009B42F81C3C0A49AF
:100A6400019B42F8183C029B42F8143C21F001011E
:100A74004FF0807342F8043C42F8081C0023203AEB
:100A840002654367704700BF21050008094A034611
:100A9400906870B113F1160F006E05D0A0F14002FA
:100AA4009A4205D8834203D2814228BF002070476E
:100AB40000207047C402002008B514460A4A0B4BB4
:100AC4009060026F1A600D4600F052F8204685F3DC
:100AD4000988002163B681F31188BFF36F8F002268
:100AE4000023FFF71BFD00BFC4020020B801002053
:100AF400014910220A60704710ED00E072B64040D0
:100B040080F31188BFF36F8FBFF34F8F30BF62B68E
:100B1400BFF36F8F704700BF044800231021C21831
:100B24000133552B82F80013F9D1704700E100E03E
:100B340001B5EFF30580A0F110004FEAC0000449AD
:100B4400014409C99847BDE801400249084700002B
:100B540074350008F1050008024B034A03480121DB
:100B640000F076B8000001200000002024380008BE
:100B7400026E054B403A1A60044A4021C3E901124F
:100B84001846012100F06EB8BC01002000000B15CE
:100B9400084AC2F898000B6823F01F03034343F08C
:100BA4001003C2F89C308B6843F00103C2F8A030F4
:100BB400704700BF00ED00E02DE9F043DFF86080EE
:100BC40085B00E461F4604464FF00009B14523DAAE
:100BD4006068D8B13FB1411E08421BD11F2819D902
:100BE4002368194216D12368019301F08BFFA3688F
:100BF40003430393D8F89050C5F30725D0B2013DC1
:100C0400A84207D801A9FFF7C3FF421C09F1010953
:100C14000C34DBE76FF01502104605B0BDE8F08335
:100C240000ED00E0044B0522C3F89420BFF34F8F7E
:100C3400BFF36F8F704700BF00ED00E0BFF35F8F1D
:100C4400024B0022C3F89420704700BF00ED00E07F
:100C540010B5034C01232278FFF7AEFF207010BDBE
:100C6400F402002008B50B4A00231278FFF7A4FF12
:100C740010F1160F07D0084A0021D2F89030C3F3C0
:100C84000723984200DB08BDC2F89800C2F8A01000
:100C94000130F2E7F402002000ED00E02DE9FF410D
:100CA400524B534CD3F890302568C3F307239D422D
:100CB40000F29980FFF7C2FF00200C26854218D16C
:100CC4004C4C4D4F25706846FFF75CFCDFF81C81E7
:100CD40006460025AE4213D1237844490020D1F8BA
:100CE4009020C2F30722934277DBFFF79BFF00209B
:100CF4001CE0616806FB0011FFF74AFF0130DDE7E5
:100D0400009800EB05114FEA051CCB683B40B3F596
:100D1400000F50D00DD8B3F5001F36D0B3F5800FB7
:100D24003ED0B3F5801F13D06FF0150004B0BDE8BA
:100D3400F081B3F1807F47D0B3F1007FF4D150F854
:100D44000C3088684A6801F0DDFE40F4802009E038
:100D540050F80C3088684A6801F0D4FE40F088509E
:100D640040F43020CDE901230390D8F89030207866
:100D7400C3F30723013B9842D6D801A9FFF708FF24
:100D84002378013323700135A4E750F80C308868C8
:100D94004A6801F0B7FE40F0885040F40020E1E7D3
:100DA40050F80C3088684A6801F0ACFE40F0E0600E
:100DB40040F40030D6E750F80C3088684A6801F0F7
:100DC400A1FE40F08270CDE750F80C3088684A6884
:100DD40001F098FE40F08870C4E7C1F89830C1F87B
:100DE400A00001337BE74FF0FF309FE700ED00E008
:100DF40030380008F40200200000F0FF08B5024B70
:100E04001B689847002008BDC8010020034B044A12
:100E14001860937843F0020393707047C801002070
:100E24000800002008B50649064821F00701C1F171
:100E3400005202F5803201F00EFE002008BD00BF12
:100E440007110020CC0100202DE9F0410F4E104F76
:100E5400054600244FF001082B7853FA84F01F282C
:100E64000DDC726908FA00F333EA020207D17361F8
:100E740057F830301BB107EBC002516898476A78C5
:100E84000134E3B29A42E7D2BDE8F08100040140A4
:100E9400D8010020044B184400230133994200F880
:100EA400012BFADC704700BF6000002010B4064B31
:100EB400064902460C6818560123934023430B60ED
:100EC40010BCFFF77DBD00BF60000020000401409E
:100ED4001F2806DC034901220B68824023EA02032F
:100EE4000B6070470004014003292AD8DFE801F0B1
:100EF400020E141F134B01229968824021EA020159
:100F04009960D96821EA0202DA6070470D4B012228
:100F1400996882401143F3E70A4B0122D968824061
:100F24001143D960996821EA02029A60704701234B
:100F340003FA00F0034B9A6802439A60DA6810439C
:100F4400D86070470004014030B50A4B53F8304074
:100F54008C4204D103EBC0056D68954205D034B9C9
:100F640043F8301003EBC0035A60002030BD6FF02B
:100F74000F00FBE7D8010020034B002243F8302088
:100F840003EBC0035A607047D801002010B5164B1C
:100F940018680B68052B144610D0062B08D86BB1C3
:100FA400013B052B0AD8DFE803F00D0C180C0912DD
:100FB400182B07D01C2B08D0142B03D06FF08500FE
:100FC40002E000202060002010BD4008FAE700F095
:100FD40095F828B100F092F8F4E749F64040F1E7BB
:100FE4006FF00400F0E700BF54000020F8B5384C5F
:100FF400384F00F093F800F089FC6368364AC3F375
:1010040003131578D35C47FA05F520FA03F6AE42CC
:1010140002D2284600F0A6FC236843F48023236010
:10102400236843F48033236023689B03FCD5636AFD
:1010340043F001036362636A9807FCD5636803F0B5
:101044000C03082B15D12368990706D4236843F0B1
:101054000103236023689A07FCD5636823F0030324
:101064006360636813F00C0FFBD1636823F0F00333
:101074006360236823F08073236000F031F82368F1
:1010840043F08073236023689B01FCD5636823F0DD
:10109400F0036360636823F0030343F002036360B7
:1010A400636803F00C03082BFAD1AE4202D328463E
:1010B40000F058FC094B1F60636823F4E06343F4B9
:1010C40080636360636823F4605363600020F8BD49
:1010D4000010024000A24A04DD3A00085400002037
:1010E400054A536823F4761343F4E8135360D36A30
:1010F40023F00F03D3627047001002404FF4E01353
:101104004FF4701292FAA2F2B2FA82F2D340024879
:1011140002335843704700BF00127A00064BDA6965
:1011240042F08052DA61DB6982B003F080530193AC
:10113400019B02B0704700BF0010024008B5074889
:1011440002F009F838B10648FFF760FE0448FFF7DB
:10115400DFF9002008BD6FF01200FBE74C350008F2
:10116400691100080A2838B5074D044604D1AB6854
:101174000D215B6828469847AB6803485B68E1B279
:101184009847204638BD00BF4C35000838B5036980
:1011940004465860084D284601F0DDFF40B16168FF
:1011A400AB680C311B682846984700EAE07038BDEC
:1011B4006FF01200FBE700BF98340008F7B50C4647
:1011C4001146B1F5001F476802691D4625D104F098
:1011D4000302043292000F23934043EA940303F082
:1011E40003023549023251F82220190C02EA134352
:1011F40091FAA1F2B2FA82F2D340BA689A4209D1C2
:101204002046FFF765FE2046FFF7B6FE0021204684
:10121400FFF76AFE002003B0F0BDB1F5800F42D0A5
:1012240026492046FFF790FE00283FD1B5F1806F94
:1012340035D0B5F1C06F34D0B5F1007F39D1022675
:101244001F4ABD6892E803006B4683E803001D480B
:101254008268194612689047C8B904F0030304333E
:101264009B000F229A4042EA940202F003039B007F
:1012740003F1804303F58033110C986820EA12408F
:1012840091FAA1F2B2FA82F2954005439D6020469C
:101294003146FFF729FE2046FFF708FEBAE701268C
:1012A400CEE70326CCE76FF08500B4E76FF00F00BC
:1012B400B1E76FF01500AEE700000140B92E000859
:1012C4001C380008983400082DE9F0471E4F0446E6
:1012D40000EBC1060025B44201D1002014E02068CF
:1012E400C30600F01F0911D4656845F02005C0F35A
:1012F400471AC0F343200A2823D857F82080B8F1AE
:10130400000F0DD16FF01200BDE8F087B9F1100F96
:1013140004D0B9F1110FEAD16568E8E73025E6E7B2
:10132400404601F018FF0028ECD04B462A460AF04C
:101334000F01404601F0D5FD002804F10804CADA83
:10134400E2E76FF01500DFE7F0380008F8B503694D
:101354000C465D6823794168012B16D09F1E7E429E
:101364007E41B6026279022A9CBF454F37F812705B
:10137400A27988BF4FF40057022A09D0042A2FD03B
:10138400003B18BF01231B0306E04FF4C066E9E7E6
:10139400B3FA83F35B091B07E2790968012A14BFD6
:1013A4004FF0000C4FF4407CA5421CD10A6822F097
:1013B400805222F4B05232431A430A604B6823F439
:1013C40040533B434B6043681A68936823F440736B
:1013D40043EA0C0393602968BDE8F84001F0E1BDDD
:1013E4004FF48053D8E7D1F800E00EF4C06E764590
:1013F4001FBFD1F800E02EF4C06E4EEA06060E6060
:1014040041680E68716801F440518F421FBF7168D2
:1014140021F440513943716041680E68316801F02C
:1014240010218B421FBF316821F010210B43336020
:10143400436819688B6803F440739C451FBF8B682D
:1014440023F4407343EA0C038B6043681B68996878
:10145400490405D5032A09D09A6822F4804204E09D
:10146400032A03D19A6842F480429A6021682B6867
:10147400994203D001F095FD23682B60F8BD00BFAD
:10148400F439000873B50669446805464B48306072
:1014940001F061FE18B96FF0120002B070BD30683F
:1014A400E16883681B6898470028F6DB206A01AA74
:1014B400002101F02BFD0028EFDB019B00221979AC
:1014C4001868FFF701FF0028E7DB6C682B692268C6
:1014D4005E68136823F001031360606801F03BFE4B
:1014E4000028D8D0D4E901018368DB6803B19847A8
:1014F400226852E8003F43F00C0342E8003100291F
:10150400F7D131462846FFF721FF237D23B1226816
:10151400936843F008039360637D23B122685368A2
:1015240043F400435360A37D23B12268536843F41A
:1015340080335360E37D23B12268536843F400335E
:101544005360227E23683AB31D4A934207D0A2F522
:101554007442934203D002F5806293422AD16B68AD
:101564001A68936843F4804393602268617E136829
:1015740023F0787343EA415313602268A17E136811
:1015840023F4F81343EA01431360E37E23B1226892
:10159400936843F4004393602268136843F00103A3
:1015A40013602368DA699102FCD5DA695202FCD52A
:1015B400002072E76FF015006FE700BF9834000851
:1015C40000380140F8B502460369466808795D6849
:1015D40091F805E08B7901280C461CD1BEF1020F6D
:1015E4005FD9022B1F464FF4C0614FF4005C70D0EA
:1015F400042B69D020B1C31E012B67D94FF480504E
:10160400BCF5805F6FD0BCF5405F6ED0BCF1000FBD
:101614001CD101231BE002280AD1BEF1020F4CD9D0
:10162400022B1F464FF480610BD04FF4005CDFE7C0
:10163400BEF1020F44D9022B1F4643D100284ED0DD
:101644000021C31E012B41D90020022703239E45FC
:101654003CD101F0C2FCB84238D1E3796BB1012B23
:1016640045D1336823498B4207D0A1F574418B429D
:1016740003D001F580618B4228D131680B6823F0D7
:1016840001030B6010462146FFF760FE32681368C1
:1016940043F00103136094E8030085E8030000208D
:1016A400F8BD4FF4C061144F022B37F81EC01F461B
:1016B4009ED170B94FF08050A2E74FF48061F2E7F9
:1016C4000021F0E70021B0E7002897D06FF08500F3
:1016D400E6E7C31E012BF9D90227002090E7014653
:1016E4004FF08050B2E70023B1E70223AFE7032BAA
:1016F400B7D0EBE700380140F439000810B54FF0DB
:10170400E0230F499C691A6908689B690D4902F432
:10171400803234B993B903464AB90A681044C01AEE
:1017240010BD002B08BF03460AB9A342F5D90A68C5
:1017340002440A604FF0E0221269EEE70446F3E740
:10174400BC020020B80200200A4B102283F8232098
:10175400094B4FF4E1521A60084B002018604FF017
:10176400E02341F61F425A6198611A6942F0070268
:101774001A61704700ED00E0BC020020B8020020AE
:1017840010B5FFF7BBFF104B1049D3E900420868BE
:10179400001942F10002C3E900020D4A00230B6064
:1017A400D2E900414FF4E153001BB0FBF3F0434393
:1017B4001B1941F10001C2E9003100F027FEBDE828
:1017C4001040FEF713BF00BF90000020B8020020B5
:1017D400880000202DE9F041DFF8E08099B1421C37
:1017E4000BD14FF0E022136923F0010313614FF092
:1017F4007F43C8F80030BDE8F081D8F800600128C4
:1018040007DC00270BE0431CD8F80060F7D140F652
:10181400191040F61A139842A8BF1846471E4FF0F5
:101824001003EFF3118583F31288BFF36F8FFFF773
:1018340065FF234C4FF0E0239969D4E90023801815
:1018440043F10003C4E900031E4B00221A601E4B3F
:101854001A68831A2ED44FF4E15C0CFB073303F5AA
:10186400E0531F33B3FBFCF7131A0CFB0733B3F538
:10187400806F164A38BF4FF48063934228BF1346E3
:101884004FF0E022C8F80030013B90695361002317
:1018940093618142A1EB0003D4E9001238BF9B1984
:1018A4005B1842F10002C4E9003285F31188BFF3EA
:1018B4006F8FA0E74FF48063E2E700BFBC02002013
:1018C40090000020B80200208800002020DFFF00E4
:1018D40038B54FF01003EFF3118583F31288BFF38B
:1018E4006F8F084B1C68084B1B68E41AFFF706FF50
:1018F40085F31188BFF36F8F4FF4E1532044B0FB9D
:10190400F3F038BD900000208800002010B5114984
:101914004B6803F00C02082A1AD103F470134FF435
:10192400701292FAA2F2B2FA82F2D3400A4A0B4837
:10193400D45CCB6A0F2203F00F0392FAA2F2B2FA3C
:1019440082F2D340064AD35CB0FBF3F0604310BD8F
:101954000248FCE700100240FD3A000800127A0039
:10196400ED3A0008D8B10F4B984216D80E4B984266
:1019740094BF002001200D4A136823F0070303439A
:101984001360136803F0070398421CBF136803F045
:101994000703C01A18BF012070470220EBE701209B
:1019A400704700BF006CDC0200366E01002002406C
:1019B40038B54FF01003EFF3118583F31288BFF3AA
:1019C4006F8F064B9C6801F0DAFB85F31188BFF337
:1019D4006F8F2046BDE83840FEF782BFC402002066
:1019E400104B70B553F82040013053F82060A642E4
:1019F40000D870BDD4E9003595B153B12846984755
:101A040038B10028B8BF4042EB68FF28A8BFFF20C8
:101A14001870EA68537843F0010353700834E6E71A
:101A24009847FBE7DC39000870B52A4B2A4C2B4D4C
:101A3400012286B003201A70FFF7D2FF00F06AFD7E
:101A44000420FFF7CDFF2646AE4204F1300410D344
:101A540000F09AFA204C224EAC4226D300F0A8FAA9
:101A6400FEF700FD1F4A137B23F00103137306B036
:101A740070BD54F80C3C059354F8103C049354F88E
:101A8400143C039354F8183C029354F81C3C0193FF
:101A940054F8203C009354E90A2354E90C0100F063
:101AA400E1F854F8303C5E65CDE7D4E90A23B3F19C
:101AB400FF3F08BFB2F1FF3F05D052EA030120689F
:101AC40003D101F06FFB3034C6E73146183000F023
:101AD40021FCF8E7F50200201C3800081C38000837
:101AE400633200081801002008B50348034A0021A6
:101AF400121A01F047FB08BD88000020F8020020FC
:101B040070B5002386B00122CDE90423194E1A4D85
:101B140001930F22CDE902321849142303FB005527
:101B240006EBC01604464FF4C070154B00954FF4F5
:101B3400A07200FB0411304600F094F8737B114A44
:101B4400EE6023F0040373734FF4046304FB033364
:101B540013446B600C4B2C74BFF35B8F53E8001F72
:101B6400013143E80012002AF8D1BFF35B8F06B0BD
:101B740070BD00BF98000020C4020020400B00206C
:101B84009131000800030020C002002080B500202D
:101B9400A6B0FFF725FF2C4B83F308882B4D2C4E62
:101BA4006B692C4F43F400736B610024F02385F8B8
:101BB4002230EC772C766C76AC7685F820406B6A14
:101BC40043F4E0236B62FEF763FEFEF791FF4FF0F0
:101BD400FF33AB62EB62FFF761F8FEF7BDFF40F243
:101BE4000113ADF8243006ABB360CDE91E44219453
:101BF40001F0B0FA0120FFF7F3FE0220164DFFF7C3
:101C0400EFFE00F0F1F9154B7561059301231449BA
:101C14000094CDE903434FF480623B46CDE901448F
:101C2400284600F01FF86A7B064622F00402284684
:101C34006A7301F0C6FA2046FFF762FF3A4631465E
:101C44002846FEF739FF00BF400B002000ED00E0FE
:101C5400C40200202D1A0008180100200D3B0008C2
:101C6400C00C00202DE9F04385B00E461099017395
:101C74001F46042100F15803C0E9163341730023C1
:101C84000F998360C0E9063304468173C373D01D82
:101C940020F007007F3020F03F003F2806F1400984
:101CA400A0F1400805D8404080F311884FF00400AB
:101CB40002DF351829462046FEF778FC07300E9BD4
:101CC40020F00700A066C4E9189802930D9B0193C5
:101CD4002D1A0C9B00932A463B4631462046FEF7BC
:101CE400B9FE00236365044B9B6803B1DB6EE366B6
:101CF400284605B0BDE8F083C402002070B506464E
:101D04000C480D4D01F0FCFA044600B9EC68AB68D0
:101D14003EB95A7BD20604D1A26912B9DA897F2A64
:101D240005D89C4202D0204600F03CFA23466B6161
:101D340070BD00BFDC020020C402002010B590F981
:101D44000D20437B002A044606DA03F07F03437325
:101D54000146064801F0CCFA054B9868031B58422B
:101D6400BDE810405841FFF7C9BF00BFDC020020A6
:101D7400C402002070B490F90D30427B002B29DBA3
:101D8400D30627D183692BBB134962F07F024273C8
:101D94000A4652F8184F944218BF2346CC6923B917
:101DA400C0E900242060C8610CE090F90E5093F95A
:101DB4000E60B5420AD0AE4208DD5A68C0E900326E
:101DC4001060586070BC0020FFF798BF9C42E7D0B9
:101DD4001B68E4E770BC7047C40200202DE9F041A1
:101DE400002A437B0CBF102508251D4204460E46DD
:101DF4000AD12B43D90903F09F0211D14273082D54
:101E040016D00120FFF77AFF1C4B9B68A3422ED10A
:101E1400EFF305835BBB3046BDE8F041FEF776BDCA
:101E240003F01F0343730146154801F061FAE6E726
:101E3400A36813B1204601F0B7F904F1180001F0CA
:101E44003DFA04F158074FF00008A56DBD42D8D003
:101E5400002DD6D0284601F0A7F905F1180001F0AD
:101E64002DFAC5F878802846FFF784FFEDE786F35E
:101E74001188BFF36F8FBDE8F08100BFC40200205A
:101E8400DC02002070B590F90D20437B002A044643
:101E940006DA03F07F0343730146174801F028FA7A
:101EA400637B164A63F07F031146637351F8183F4E
:101EB400D0698B4208BF002323B9C4E90010046031
:101EC400D4610CE094F90E5093F90E60B5420ED033
:101ED400AE420CDD5968C4E900310C605C60906866
:101EE400031B5842BDE870405841FFF707BF9842B2
:101EF400E3D01B68E0E700BFDC020020C40200203E
:101F040049B9EFF3058030B9054B5A699B689A4289
:101F140001D0FEF7FBBC81F31188BFF36F8F7047CC
:101F2400C402002010B54FF01002EFF3118482F3C5
:101F34001288BFF36F8F427B510704D484F3118856
:101F4400BFF36F8F10BD22F004024273FFF712FF3C
:101F540021460248BDE81040FFF7D2BFF602002038
:101F6400034648B9EFF3058232B9064A51699268CB
:101F7400914201D0FEF7CABC83F31188BFF36F8F7F
:101F8400704700BFC40200204FF01003EFF311812B
:101F940083F31288BFF36F8F044B9A68D37B013BA2
:101FA400D37381F31188BFF36F8F7047C40200208D
:101FB40010B54FF01003EFF3118483F31288BFF3CD
:101FC4006F8F084B9A68D37B0133D3730020FFF7DC
:101FD40095FE84F31188BFF36F8FBDE8104001F0C4
:101FE40042B900BFC4020020024B03F11802C3E946
:101FF40006227047C4020020F8B54FF01003EFF337
:10200400118683F31288BFF36F8F1A4CA1684B7B40
:1020140004F1180503F07F034B73284601F068F9B7
:10202400A3685A7B62F07F025A73A269E169AA42EB
:1020340008BF002222B9C3E900510B60E3610CE040
:1020440093F90E0092F90E70B8420ED087420CDD5F
:102054005168C3E900210B6053600120FFF74EFE75
:102064003046BDE8F840FEF751BC8A42E3D012681E
:10207400E0E700BFC402002050EA01032DE9F0416B
:1020840005460E4603D1FFF7B7FF00202CE0831C62
:1020940071F1FF332ADB01F027F92C184FF01003FC
:1020A400EFF3118883F31288BFF36F8F114F124B34
:1020B400B8681860FFF742FEB86810492A463346EC
:1020C400183000F027F9BA68537B43F010035373B8
:1020D4004046FEF71BFC01F007F9201A63EB0303EB
:1020E400012873F10003D0DBBDE8F0816FF0010437
:1020F400241AD3E7C4020020E4020020633200085B
:10210400B1F1FF3F08BFB0F1FF3F08B506D10A4B5C
:10211400986801F066F84FF0FF3008BDFFF7ACFF98
:10212400C11709304FF00A024FF0000341F10001DA
:10213400FEF72EF8F1E700BFC4020020014B9868B7
:10214400704700BFC4020020044BC01A044BC010E7
:102154005843044B01221A54704700BF98010020D1
:10216400ABAAAAAAF6020020C3897F2B12D80A4B75
:102174001B6863B1094B90F90E201B689A4209DB76
:10218400437BDB0606D1064BC31A18BF012303F0B9
:10219400010070470023FAE7EC020020E802002067
:1021A4009800002070B50E4B0E4C1E7C06EB4603C7
:1021B40004EBC3040546204601F080F80A4B0022D4
:1021C40028469A55FFF7D0FF48B1084B08491A68CA
:1021D400013A2046D317BDE8704000F09BB870BDAB
:1021E400C402002098010020F6020020EC02002026
:1021F4004D21000838B54FF01003EFF3118583F338
:102204001288BFF36F8F104B104A9C681068A0426D
:1022140006D1FFF7C7FF85F31188BFF36F8F38BD71
:1022240000211B7C11600A4AD35C002BF3D02046AA
:10223400FFF79AFF0028EED0637BDB0602D120462D
:10224400FFF720FE2046E4E7C4020020E402002059
:10225400F602002008B50648064A0749121A00F09B
:1022640093FFBDE80840054A0549064800F08CBFC5
:1022740000000020860000205C3B000800000000F5
:102284005C3B000800000020034B1B680BB9FFF700
:102294001FBB0020704700BFF002002030B570B1B2
:1022A4000B4B5B6898420AD0036843B1D3E904211D
:1022B400D0E90445121941EB0501C3E90421D0E931
:1022C400003213605A600023C0E9003330BD00BF00
:1022D4005800002010B50E4B1C689C4204D1FFF737
:1022E400D3FF6FF0004010BDFFF7CEFF002CF8D0F5
:1022F400D4E904321B1A62EBE072B3F1004F72F1BD
:102304000001EEDA002AACBF18460020EBE700BF5C
:1023140058000020B3F1FF3F08BFB2F1FF3FF8B50A
:1023240004461D4616465FD081604FF01003EFF35C
:10233400118783F31288BFF36F8F013275F1FF3376
:1023440024DA2F49D1E900206FF001039B1A4FF0E2
:10235400FF3262EB00009E1B60EB0500012E70F162
:10236400000301DA01260020C4E90460254ED6F8F2
:1023740000C07568B44508BF4FF0000CBCF1000FF5
:102384000DD1C4E900652C6074601CE0FFF77CFF8C
:10239400013645F10005361845EBE070E4E7DCE969
:1023A4000420D4E90431934271EB000E1DDAD21AF1
:1023B400DCF8043060EB0100CCE90420C4E900C37C
:1023C4001C60CCF804403368B34209D09C4207D166
:1023D4000D4B1C6824B9FFF77DFF2146FFF7FAF97E
:1023E40087F31188BFF36F8FF8BD9B1A61EB00016F
:1023F400AC45C4E90431C4D0DCF800C0BEE700BF7A
:10240400B001002058000020F00200202DE9F84F10
:102414004FF01003EFF3118C83F31288BFF36F8F27
:10242400DFF8B0A0DFF8B0902C4FC9F80000DAF85C
:1024340000000024504508BF00200025D7E90021F2
:10244400D9F80030E04680B3D0E9046C4FEAE37E6B
:10245400B3427EEB0C0B05DAF61A6CEB0E04C0E902
:10246400046422E0B21841EBE671C0E90445C7E90F
:102474000021FFF713FF88F31188BFF36F8F836880
:1024840098474FF01003EFF3118883F31288BFF3DA
:102494006F8FD9F80030DAF800009B1B5045C44612
:1024A400C9F80030CAD1D7E900219A1841EBE37387
:1024B4000024C7E90023C9F80040FFF70BFF2146B9
:1024C400FFF788F988F31188BFF36F8FBDE8F84FE1
:1024D400FFF790BE58000020F0020020B001002059
:1024E40010B54FF01003EFF3118483F31288BFF398
:1024F4006F8FFFF7C9FE064A0346D2E90001181898
:1025040041EBE37184F31188BFF36F8F10BD00BFFB
:10251400B0010020014800F0DDBA00BF123B000802
:102524000FB407B5064B04AA186852F8041B0192AD
:1025340000F008F803B05DF804EB04B0704700BF86
:10254400503800082DE9F04F8DB04368029383782A
:1025540015469A07804640F10D8100240E78002E1E
:1025640000F00A81252E0BD04B1C03930134029BEF
:102574004146304698470028C0F2F6800399EDE7BB
:102584004E788B1C252E0393F0D00027B946BB460A
:10259400BBF11F0F38D8A6F12003102B0AD8DFE8AF
:1025A40003F02A0909300909092109090928092D13
:1025B40009091F00A6F13003092B33D92A2E37D17C
:1025C4001BF0400F55F8043B40F08280002BA7BF5E
:1025D4004BF0200B9946C3F100094BF0280B01E0A6
:1025E4004BF0010B039B13F8016B0393002ECFD127
:1025F40030E04BF0020B4BF0040BF3E74BF0080B0D
:10260400F0E74BF0100BEDE7BBF17F0F19D8A6F103
:102614003003092BD2D81BF0400F03D00A2101FB51
:102624000737DFE70A2101FB09394BF0200BD9E713
:102634002E2E06D11BF0400F40F09E804BF0400B35
:10264400D0E76C2E31D02BD8682E36D06A2E3CD0F1
:102654004C2E3AD0002F46F02003B8BF2BF0400296
:10266400A3F16501BCBF1FFA82FB0027022901D92F
:10267400612B2FD1073525F00705DFF8ACA208350B
:1026840007271BF0080F66D00AEB070B56465E457A
:1026940063D1A4EB0A0A06EB0A02A9EB07096FE16E
:1026A400742E9FD07A2E9DD0D4E71BF0800F18BFD4
:1026B4004BF4007B4BF0800B94E71BF4807F18BF36
:1026C4004BF4007B4BF4807B8CE74BF4207B89E755
:1026D4001F4687E7A6F16301122900F2F080DFE8C4
:1026E40011F013004F00EE00EE00EE00EE004F007C
:1026F400EE00EE00EE00EE00EE00FE00E900EE005B
:10270400EE001B00EE00AF0055F8043B8DF81830C6
:1027140001270DF1180AB4E755F804AB834BBAF15D
:10272400000F08BF9A461BF0400F14BF39464FF004
:10273400FF31504600F0EAFD0746A2E7029B4146FE
:102744002020984700280FDB013EB742F6D34C44C3
:10275400A41BB14698E74E46F7E716F8010B029B17
:1027640041469847002892DA98F8023043F004036F
:1027740088F802304FF0FF3420460DB0BDE8F08FEA
:102784001BF0800F34D01BF4007F2CD0073525F0CC
:102794000705AA4669685AF8080B2BF010050029AA
:1027A400ADB237DA404261EB410145F480650DF189
:1027B400180B0A235A4600F0B5FDA0EB0B03019356
:1027C4006B0662D5019B25F001019F4289B240F35B
:1027D400A180002E00F0998015F0100240F09C803A
:1027E400BB460D4623E0AA465AF8040BC117D4E7AA
:1027F400AA461BF4807F5AF8041B01D10846F5E76A
:102804001BF4007F15BF48B208B241F3C01141F375
:10281400C031C2E750EA0103C9D11BF0400FC6D052
:10282400002FC4D12BF0110295B2BB46019740F2A0
:10283400064115EA01021CBF0BF1010B00222CE03A
:102844002BF010021FFA82FB0A231BF0800C49D0E4
:102854001BF400711DBF073525F00705AA46AA46DB
:102864001ABF5AF8080B69685AF8040B50EA0105B4
:1028740045D12BF016051BF0400FADB242D0002F0E
:1028840040D12BF0170295B2019715F0100248D0F1
:10289400019B002E42D103F1010B29075AD4EB0707
:1028A40006D5D9456FDD0199A9EB0B035F18CB461B
:1028B4005B4649E04BF0100B10237826C5E7782BD4
:1028C40004D1C6F1780343F01003BEE7029B4146EE
:1028D400252098470028FFF647AF023447E608232F
:1028E4000026B2E7AA461BF480715AF8040BBDD047
:1028F4001BF400711ABFC0B2614680B2B6E72BF078
:10290400060295B20DF1180B54E725F01105ADB28E
:10291400BB468CE70D46B8E73B460D4603F1020B78
:10292400BBE7DDF804B082E7543B00084D3B0008E8
:10293400CDE904324146029B202098470028FFF647
:1029440013AF049B059A01339945F1DCA4EB0B0109
:10295400CC189B460AB3029B414630209847002876
:10296400FFF602AF8EB901342744019B391B99420B
:1029740024DC1D465DBB019AA9EB0B092244554694
:102984001446914435E0019F92E7023441463046B3
:10299400029B98470028E7DAE6E640F206410D423A
:1029A400E2D015F0020F14BF2B20202015F4806F05
:1029B40004F10104414618BF2D20E9E7029B41467A
:1029C40030209847002804F10104CEDACCE606ABA7
:1029D400013D4146585D029B98470028CADAC3E688
:1029E400029B414620209847002804F10104FFF689
:1029F400BBAEA9EB0403002BF2DCBFE5704700EB90
:102A0400C100408840087047F8B50346FFF7F7FF58
:102A1400B0FA80F0C0F11F0003EB800CCA00DCF8B0
:102A24001060171D0C4606328DB256B9012101FA09
:102A340000F0D9680143D960CCF81040DD539D52B1
:102A4400F8BDF1000431585AD85303EBC0009E522C
:102A5400C5805D52F4E7043A2DE9F041CC1D1144E0
:102A640024F0070421F007010E1BF708B7FA87F2D8
:102A7400C2F12405AD004FF000080735C2F1200271
:102A8400ED0804604146A760C4F80C80920004F18C
:102A9400100000F0ACFC6B0043F00103638004EB16
:102AA400C5027B1B5900A4F800805180A21924F8A8
:102AB4003550A2F80280A35304EBC70329465A8871
:102AC40042F001025A802046BDE8F041FFF79CBF66
:102AD400002070470FB407B504A951F8040B019105
:102AE400FDF7FEFC03B05DF804EB04B070477047DB
:102AF400FEF75EBF01460068FEF75ABF00210120C1
:102B0400FFF7F6BF202809D9B0F1004F08D80138E3
:102B1400B0FA80F0C0F11F004000704708207047F1
:102B24003E20704708B5FEF769F9002008BD08B5D6
:102B3400062201210020FEF7ADF9002211460620ED
:102B4400FDF74CFF012108460722FEF7A3F90022F6
:102B540011460720FDF742FF082201210220FEF75B
:102B640099F9002211460820FDF738FF09220121B6
:102B74000320FEF78FF9002211460920FDF72EFFEE
:102B84000A2201210420FEF785F9002211460A20B9
:102B9400FDF724FF052108461722FEF77BF90022E2
:102BA40011461720FDF71AFF282206210A20FEF7F6
:102BB40071F9002211462820FDF710FF002008BDFE
:102BC4000B68A3F11402082A82B012D803F18043DF
:102BD40003F5043348681A6802431A600B6803F16A
:102BE400804303F5043300201B680193019B02B06A
:102BF40070476FF08500FAE70B68A3F11402082A06
:102C04009FBF03F1804303F5043349681A689DBFED
:102C14008A4300201A606FF08500704710B50A6877
:102C2400062A25D86A23D340DB0721D54A68FF2A20
:102C34001CD0D3B203F1804303F50433C2F342340E
:102C44001868C2F3042204FA02F220EA02021A60AB
:102C54004968CBB203F1804303F50433C1F3024264
:102C64001868C1F304218A4002431A60002010BD91
:102C74006FF08500FBE70B68A3F11402082A0AD859
:102C840003F1804303F504331A684B68934314BF7C
:102C9400012002207047062B9FBF6A20D84000F015
:102CA4000100013088BF0120704743685B681B69DD
:102CB4000B600020704743685B68586942400A40D3
:102CC40042405A610020704743685B680020996164
:102CD400704743685B6800209962704743685A688C
:102CE40053694B4053610020704710B503699868DD
:102CF400F8B1884219D1DC6808689860A14200D113
:102D0400D860002008602AB19A680A60DA6899607D
:102D140002B9D960002010E0814206D10868206021
:102D2400D8688142EDD1DC60EBE7044600680028F6
:102D3400F2D1002AE8D16FF0150010BDF0B5446857
:102D44000120676888401E46C2F3801327EA000703
:102D54008B403B43636090FAA0F7B7FA87F7D4F847
:102D640008C04FF0030E7F000EFA07F72CEA070C99
:102D740090FAA0F7B7FA87F7C2F3C1137F00BB40FC
:102D840043EA0C03A36090FAA0F3B3FA83F3E76871
:102D94005B000EFA03F327EA030790FAA0F3B3FAF1
:102DA40083F302F030055B00C2F341229A403A43B8
:102DB400202DE26016D107292BDC90FAA0F3226AB9
:102DC4002BB3B3FA83F39B000F2101FA03F322EA36
:102DD400030290FAA0F3B3FA83F39B0006FA03F319
:102DE4001343236290FAA0F3B3FA83F3226890FAB0
:102DF400A0F05B000321B0FA80F02D0901FA03F37F
:102E0400400022EA030385401D432560F0BD2B46A4
:102E1400D9E7030A616A93FAA3F282B1B2FA82F2A1
:102E240092000F2793FAA3F3B3FA83F307FA02F29B
:102E34009B0021EA02029E4016436662D2E72A46BC
:102E4400EEE713469A0310B518D59C070FD55A0719
:102E54002DD55022DC060CD542F4007213F4002F59
:102E6400446818D0646801238B40A3610DE01022EC
:102E7400F0E79C06F2D542F48062EFE7DC0311D55B
:102E8400DA0611D4C3F340139A0240680023FFF713
:102E940055FF002010BD5B03F7D5646801238B4008
:102EA400A362F2E73022F0E74FF40072EDE76FF02F
:102EB4008500EFE770B50B46896821B101255E688E
:102EC4000C68854001B970BD8A682A4002D04B68FD
:102ED400304698471CB1236821461C46F2E7234636
:102EE400FAE7F8B51F46044640680E461546FFF754
:102EF40025FF112F08D1012303FA06F663685B68E6
:102F04002A054CBF9E619E620020F8BD30B503685F
:102F140013600579046804EBC504A34202D36FF07F
:102F2400010030BD5C798C4201D00833F0E7002009
:102F3400F7E74368C1F34B101B6801F01F01C05849
:102F440001238B40034214BF01230023137000208C
:102F5400704710B54368C1F34B101A6801F01F01A4
:102F6400845801238B4023438350002010BD10B5A7
:102F74004368C1F34B14186801F01F012358012260
:102F84008A4023EA02032350002010BD38B50446CA
:102F94000D46FFF7DEFF29462046FFF7E8FF002035
:102FA40038BD37B50369456818688368DB680C4623
:102FB400E96883B101AA984700280CDB2A681368E2
:102FC40023F400431360019B2A6803EB5403B3FB0F
:102FD400F4F39BB2D36003B030BDB0F5805F07D08B
:102FE400B0F1805F09D1002914BF0120022070478D
:102FF400002914BF032004207047002914BF0220B5
:103004000320704742681368D869D969C907D96928
:10301400C0F3C00048BF40F002008907D96948BF27
:1030240040F004004907D96948BF40F02000C905B1
:1030340042BF4FF4807140F008001962C10742BFDB
:10304400136808211962830742BF136801211962BA
:10305400410742BF136802211962830642BF136805
:1030640004221A62704710B540680268D3691B06CF
:10307400FCD54FF01002EFF3118382F31288BFF3F3
:103084006F8F0268D469240604D483F31188BFF3D4
:103094006F8FEAE7118583F31188BFF36F8F10BD3B
:1030A40043681A68D069000744BF082010621B688F
:1030B400DA69920643BF9B8C0B7000204FF0FF30FF
:1030C400704710B50269526812680A604268126853
:1030D400126802F4C062B2F5806F04460B4633D026
:1030E400A2F5C060424242411A7162681268526895
:1030F40002F44052B2F5805F28D0B2F5405F27D089
:10310400002A0CBF012203225A71626812681068F7
:10311400116800F0102001F4C061FFF75EFF9871A0
:1031240062681268926802F44072A2F540714A42E1
:103134004A41DA7161680968896811F4804F18BFDF
:103144000322DA71002010BD0222CDE70022DBE762
:103154000222D9E7704740B1C368587810F00100E3
:103164001EBF1878B0FA80F0400970474FF0100283
:10317400EFF3118382F31288BFF36F8FFEE708B574
:10318400FFF7F4FF00F033B900F023B908B54FF0AE
:103194001002EFF3118382F31288BFF36F8FFDF7F0
:1031A400ADFCF4E7FEF7BEBE10B5044601468068E8
:1031B40000F09EF8637B23F0020363730023A36093
:1031C40010BD10B54FF01003EFF3118483F3128890
:1031D400BFF36F8FFEF7CEFD84F31188BFF36F8FBB
:1031E40010BD10B50446183000F068F84FF0100315
:1031F400EFF3118183F31288BFF36F8F627B12F0B8
:10320400100204D081F31188BFF36F8F10BD2046E4
:10321400BDE81040FEF7E2BD70B504460D464FF020
:103224001003EFF3118683F31288BFF36F8F437B90
:1032340013F0280F0BD183680BB1FFF7B5FF637B45
:1032440055B903F0FB0363732046FEF793FD86F341
:103254001188BFF36F8F70BD03F0EB03F3E7012117
:103264001838FFF7D9BF4FF01003EFF3118083F341
:103274001288BFF36F8FFEF773BE4FF01002EFF3A7
:10328400118182F31288BFF36F8F027BD2070AD5B4
:1032940081F31188BFF36F8F404080F311884FF0A2
:1032A400040002DF7047437B1B0704D581F31188B8
:1032B400BFF36F8F70470122FEF790BD10B54FF03A
:1032C4001002EFF3118482F31288BFF36F8F036847
:1032D4003BB1FEF7E3FF002084F31188BFF36F8F47
:1032E40010BD6FF01500F7E708B5FFF7F9F808BD52
:1032F400D1E9003213605A600023C1E900337047FA
:103304000368984214BF18460020704710B502465F
:1033140001448A42134603D01C780132002CF8D1B0
:10332400181A10BDF0B5C3F137070446FFB203F015
:103334001F031046082BE6B233D0102B3ED065088D
:10334400A40844EA817445EAC1752D194FEA910233
:1033540042EB5102290941EA02716D1842EB121243
:10336400290A41EA02616D1842EB1222290C41EA52
:1033740002416D1842EB1242AD1842F10002EC0812
:1033840044EA4274D10804EB8402A6EB4205EDB290
:10339400092D0CD90134A5F10A0541F10001EDB262
:1033A40012E0E40844EA417406F00705C908303520
:1033B40054EA010200F8015BBCD1F0BD240944EADF
:1033C400017406F00F050909092D84BFED19EDB24A
:1033D400EDE70A44914200F1FF3300D1704710B584
:1033E40011F8014B03F8014F9142F9D110BD024489
:1033F4000346934200D1704703F8011BF9E700002C
:0C3404000148006870470000B80100207B
:08341000B8CDFF7F01000000B0
:103418006905000800000000F10F00089834000852
:10342800550500080000000000000000AC3400084A
:10343800911100081035000891110008383500086E
:10344800332B0008C0340008911100082435000807
:1034580091110008FC34000891110008E8340008B4
:1034680091110008D4340008891400084C3500086C
:1034780089140008603500084111000800000000A8
:103488004D17000800000000290E00080000000089
:103498004B3A0008000000001800002072000020CD
:1034A80000000000AC3A00081C3900082039000868
:1034B80080000020000000002D3A000800000000F5
:1034C8000000000070000020D8010020583A0008D1
:1034D80054380008CC380008740000205802002036
:1034E800663A000868380008CC38000876000020E2
:1034F80068020020743A00087C380008CC380008BC
:103508007800002078020020823A000890380008ED
:10351800CC3800087A00002088020020903A000881
:10352800A4380008CC3800087C000020980200204D
:103538009E3A0008B8380008CC3800087E00002001
:10354800A8020020BD3A000830390008C839000830
:103558008200002034000020CD3A00087C390008A1
:0C356800C8390008840000204400002046
:1035740000000000012B000800000000012B0008DF
:1035840000000000012B000800000000012B0008CF
:1035940000000000012B000800000000012B0008BF
:1035A4002B3A00084D0E0008293A00084D0E000879
:1035B400273A00084D0E0008253A00084D0E000871
:1035C400233A00084D0E000800000000012B0008FB
:1035D40000000000012B000800000000012B00087F
:1035E40000000000012B000800000000012B00086F
:1035F40000000000012B000800000000012B00085F
:1036040000000000012B000800000000012B00084E
:1036140000000000012B000800000000012B00083E
:1036240000000000012B0008213A00084D0E00089C
:1036340000000000012B000800000000012B00081E
:1036440000000000012B000800000000012B00080E
:1036540000000000012B000800000000012B0008FE
:1036640000000000012B000800000000012B0008EE
:1036740000000000012B000800000000012B0008DE
:1036840000000000012B000800000000012B0008CE
:1036940000000000012B000800000000012B0008BE
:1036A40000000000012B000800000000012B0008AE
:1036B4001F3A00084D0E000800000000012B00080E
:1036C40000000000012B000800000000012B00088E
:1036D40000000000012B000800000000012B00087E
:1036E40000000000012B000800000000012B00086E
:1036F40000000000012B000800000000012B00085E
:1037040000000000012B000800000000012B00084D
:1037140000000000012B000800000000012B00083D
:1037240000000000012B000800000000012B00082D
:1037340000000000012B000800000000012B00081D
:1037440000000000012B000800000000012B00080D
:1037540000000000012B000800000000012B0008FD
:1037640000000000012B000800000000012B0008ED
:1037740000000000012B000800000000012B0008DD
:1037840000000000012B000800000000012B0008CD
:1037940000000000012B000800000000012B0008BD
:1037A40000000000012B000800000000012B0008AD
:1037B40000000000012B000800000000012B00089D
:1037C40000000000012B000800000000012B00088D
:1037D40000000000012B000800000000012B00087D
:1037E40000000000012B000800000000012B00086D
:1037F40000000000012B000800000000012B00085D
:1038040000000000012B000800000000012B00084C
:0838140000000000012B000878
:10381C001800000001000000000000200000000063
:10382C0000000B06020000003838000800000008F9
:10383C00103A00082400020700000020183A000883
:10384C001E000B1108000020FFFF000000140048B0
:10385C00050000001400000000004000FFFF000005
:10386C0000100048040000001400000000002000BC
:10387C00FFFF0000000C00480300000014000000D3
:10388C0000001000FFFF00000008004802000000CC
:10389C001400000000000800FFFF000000040048B6
:1038AC00010000001400000000000400FFFF0000F5
:1038BC00000000480000000014000000000002009E
:1038CC00472E0008AF2C0008BB2C0008CD2C00089C
:1038DC00D72C0008E12C0008C1110008EF2C0008BF
:1038EC0000000000383500082435000810350008A9
:1038FC00FC340008E8340008D43400080000000050
:10390C0000000000000000000000000000000000AB
:10391C0000100240372F0008572F0008732F0008A3
:10392C00912F000800440040AC3400081102000044
:10393C0054390008010000000000000000000000E5
:10394C00000000005C3900081C00000000000200B0
:10395C0064390008010000006C3900080200000006
:10396C00470000000002000067000000000000009B
:10397C0000380140AC3400088E010000A03900086A
:10398C00010000000000000000000000000000002A
:10399C00A83900081800000000400000B0390008E9
:1039AC0001000000B83900080200000027010000E7
:1039BC00000200004701000000000000A5300008D4
:1039CC006B30000809300008C9150008C730000822
:1039DC0018340008183400088834000890340008A3
:1039EC0098340008983400080010000000304F4E46
:1039FC00004F4646004C45442073746174653A2070
:103A0C0025730A00464C4153485F30005352414DD8
:103A1C005F30000A060505040103010201010100E3
:103A2C0001696E746572727570742D636F6E747249
:103A3C006F6C6C6572403430303130343030007221
:103A4C006363403430303231303030006770696F2E
:103A5C00403438303031343030006770696F403466
:103A6C0038303031303030006770696F4034383066
:103A7C003030633030006770696F4034383030302C
:103A8C00383030006770696F403438303030343043
:103A9C0030006770696F403438303030303030006F
:103AAC0072657365742D636F6E74726F6C6C657276
:103ABC000073657269616C403430303034343030AE
:103ACC000073657269616C4034303031333830309A
:103ADC0000000000000000000001020304060708BB
:103AEC00090102030405060708090A0B0C0D0E0F49
:103AFC001002030405060708090A0B0C0D0E0F1023
:103B0C00106D61696E002A2A2A20426F6F74696EEB
:103B1C0067205A6570687972204F53206275696C02
:103B2C00642076332E362E302D323334312D6733DC
:103B3C006238393530363461666166202A2A2A0AA1
:103B4C0000286E756C6C29002A666C6F61742A00F3
:103B5C00D52A0008A905000800000000292B000840
:103B6C000000000000000000C52B0008FD2B000821
:103B7C0000000000910F00087B2C000800000000E2
:103B8C00212C0008000000003C00002000C20100B5
:103B9C0000010300000000004C00002000C20100E6
:103BAC000001030000127A00580000205800002089
:103BBC00FFFFFFFFFFFFFFFFFFFFFFFFFFFFFFFF09
:103BCC0000000000000000000000000000000000E9
:063BDC00000000000000E3
:043BE20015E015E0F5
:04000005080008B92E
:00000001FF
